{
  "address": "0x916DFA644bd13D16D512A6F2FB67fa66d5E1206c",
  "abi": [
    {
      "inputs": [
        {
          "internalType": "int256",
          "name": "_initialValue",
          "type": "int256"
        }
      ],
      "stateMutability": "nonpayable",
      "type": "constructor"
    },
    {
      "anonymous": false,
      "inputs": [
        {
          "indexed": false,
          "internalType": "int256",
          "name": "newCounterValue",
          "type": "int256"
        }
      ],
      "name": "CounterUpdated",
      "type": "event"
    },
    {
      "inputs": [],
      "name": "getCounter",
      "outputs": [
        {
          "internalType": "int256",
          "name": "",
          "type": "int256"
        }
      ],
      "stateMutability": "view",
      "type": "function"
    },
    {
      "inputs": [],
      "name": "increment",
      "outputs": [],
      "stateMutability": "nonpayable",
      "type": "function"
    }
  ],
  "transactionHash": "0xdaff8fd27ca42875aaea3c153cd7068a00ec74ae8c0e0bda5b513f4015e2131a",
  "args": [
    0
  ],
  "numDeployments": 1,
  "solcInputHash": "24d9cd71707b2cc1e00027c8db837f30",
  "bytecode": "0x608060405234801561001057600080fd5b5060405161016b38038061016b83398101604081905261002f91610037565b600055610050565b60006020828403121561004957600080fd5b5051919050565b61010c8061005f6000396000f3fe6080604052348015600f57600080fd5b506004361060325760003560e01c80638ada066e146037578063d09de08a14604c575b600080fd5b60005460405190815260200160405180910390f35b60526054565b005b60016000808282546064919060a1565b90915550506000546040519081527fb5ad271ddbf23445dc5f66a275faf9b2ca18e52f77a8d91181b3db57843102f09060200160405180910390a1565b808201828112600083128015821682158216171560ce57634e487b7160e01b600052601160045260246000fd5b50509291505056fea2646970667358221220301a979152340d4e6c5ca476bcd57cc82eb2169103e4059fae1098c783a4cfcb64736f6c63430008140033",
  "devdoc": {
    "author": "BuidlGuidl",
    "kind": "dev",
    "methods": {},
    "version": 1
  },
  "userdoc": {
    "kind": "user",
    "methods": {},
    "notice": "A smart contract that allows changing a state variable of the contract and tracking the changes It also allows the owner to withdraw the Ether in the contract",
    "version": 1
  },
  "storageLayout": {
    "storage": [
      {
        "astId": 5,
        "contract": "contracts/Counter.sol:Counter",
        "label": "counter",
        "offset": 0,
        "slot": "0",
        "type": "t_int256"
      }
    ],
    "types": {
      "t_int256": {
        "encoding": "inplace",
        "label": "int256",
        "numberOfBytes": "32"
      }
    }
  }
}